{
  "_format": "hh-sol-artifact-1",
  "contractName": "IHive",
  "sourceName": "contracts/IHive.sol",
  "abi": [
    {
      "anonymous": false,
      "inputs": [
        {
          "indexed": false,
          "internalType": "string",
          "name": "contentHash",
          "type": "string"
        }
      ],
      "name": "IdeaExists",
      "type": "event"
    },
    {
      "anonymous": false,
      "inputs": [
        {
          "indexed": true,
          "internalType": "address",
          "name": "creator",
          "type": "address"
        },
        {
          "indexed": false,
          "internalType": "string",
          "name": "contentHash",
          "type": "string"
        },
        {
          "indexed": false,
          "internalType": "uint256",
          "name": "timestamp",
          "type": "uint256"
        }
      ],
      "name": "IdeaSubmitted",
      "type": "event"
    },
    {
      "inputs": [
        {
          "internalType": "string",
          "name": "contentHash",
          "type": "string"
        }
      ],
      "name": "ideaExists",
      "outputs": [
        {
          "internalType": "bool",
          "name": "",
          "type": "bool"
        }
      ],
      "stateMutability": "view",
      "type": "function"
    },
    {
      "inputs": [
        {
          "internalType": "bytes32",
          "name": "",
          "type": "bytes32"
        }
      ],
      "name": "ideas",
      "outputs": [
        {
          "internalType": "address",
          "name": "creator",
          "type": "address"
        },
        {
          "internalType": "string",
          "name": "contentHash",
          "type": "string"
        },
        {
          "internalType": "uint256",
          "name": "timestamp",
          "type": "uint256"
        }
      ],
      "stateMutability": "view",
      "type": "function"
    },
    {
      "inputs": [
        {
          "internalType": "string",
          "name": "contentHash",
          "type": "string"
        }
      ],
      "name": "submitIdea",
      "outputs": [],
      "stateMutability": "payable",
      "type": "function"
    }
  ],
  "bytecode": "0x6080604052348015600f57600080fd5b50610b638061001f6000396000f3fe6080604052600436106100345760003560e01c806351c666a6146100395780636464512214610076578063b5a820ed146100b5575b600080fd5b34801561004557600080fd5b50610060600480360381019061005b9190610567565b6100d1565b60405161006d91906105cb565b60405180910390f35b34801561008257600080fd5b5061009d6004803603810190610098919061061c565b61016b565b6040516100ac93929190610722565b60405180910390f35b6100cf60048036038101906100ca9190610567565b61023d565b005b600080826040516020016100e5919061079c565b604051602081830303815290604052805190602001209050600073ffffffffffffffffffffffffffffffffffffffff1660008083815260200190815260200160002060000160009054906101000a900473ffffffffffffffffffffffffffffffffffffffff1673ffffffffffffffffffffffffffffffffffffffff161415915050919050565b60006020528060005260406000206000915090508060000160009054906101000a900473ffffffffffffffffffffffffffffffffffffffff16908060010180546101b4906107e2565b80601f01602080910402602001604051908101604052809291908181526020018280546101e0906107e2565b801561022d5780601f106102025761010080835404028352916020019161022d565b820191906000526020600020905b81548152906001019060200180831161021057829003601f168201915b5050505050908060020154905083565b600081604051602001610250919061079c565b604051602081830303815290604052805190602001209050600073ffffffffffffffffffffffffffffffffffffffff1660008083815260200190815260200160002060000160009054906101000a900473ffffffffffffffffffffffffffffffffffffffff1673ffffffffffffffffffffffffffffffffffffffff161461030c576040517f08c379a00000000000000000000000000000000000000000000000000000000081526004016103039061085f565b60405180910390fd5b60405180606001604052803373ffffffffffffffffffffffffffffffffffffffff1681526020018381526020014281525060008083815260200190815260200160002060008201518160000160006101000a81548173ffffffffffffffffffffffffffffffffffffffff021916908373ffffffffffffffffffffffffffffffffffffffff16021790555060208201518160010190816103ab9190610a2b565b50604082015181600201559050503373ffffffffffffffffffffffffffffffffffffffff167fab4d50afafe6d508b8f57e152e71e1cfd03485bb96129c49c420a0e760aba4348342604051610401929190610afd565b60405180910390a25050565b6000604051905090565b600080fd5b600080fd5b600080fd5b600080fd5b6000601f19601f8301169050919050565b7f4e487b7100000000000000000000000000000000000000000000000000000000600052604160045260246000fd5b6104748261042b565b810181811067ffffffffffffffff821117156104935761049261043c565b5b80604052505050565b60006104a661040d565b90506104b2828261046b565b919050565b600067ffffffffffffffff8211156104d2576104d161043c565b5b6104db8261042b565b9050602081019050919050565b82818337600083830152505050565b600061050a610505846104b7565b61049c565b90508281526020810184848401111561052657610525610426565b5b6105318482856104e8565b509392505050565b600082601f83011261054e5761054d610421565b5b813561055e8482602086016104f7565b91505092915050565b60006020828403121561057d5761057c610417565b5b600082013567ffffffffffffffff81111561059b5761059a61041c565b5b6105a784828501610539565b91505092915050565b60008115159050919050565b6105c5816105b0565b82525050565b60006020820190506105e060008301846105bc565b92915050565b6000819050919050565b6105f9816105e6565b811461060457600080fd5b50565b600081359050610616816105f0565b92915050565b60006020828403121561063257610631610417565b5b600061064084828501610607565b91505092915050565b600073ffffffffffffffffffffffffffffffffffffffff82169050919050565b600061067482610649565b9050919050565b61068481610669565b82525050565b600081519050919050565b600082825260208201905092915050565b60005b838110156106c45780820151818401526020810190506106a9565b60008484015250505050565b60006106db8261068a565b6106e58185610695565b93506106f58185602086016106a6565b6106fe8161042b565b840191505092915050565b6000819050919050565b61071c81610709565b82525050565b6000606082019050610737600083018661067b565b818103602083015261074981856106d0565b90506107586040830184610713565b949350505050565b600081905092915050565b60006107768261068a565b6107808185610760565b93506107908185602086016106a6565b80840191505092915050565b60006107a8828461076b565b915081905092915050565b7f4e487b7100000000000000000000000000000000000000000000000000000000600052602260045260246000fd5b600060028204905060018216806107fa57607f821691505b60208210810361080d5761080c6107b3565b5b50919050565b7f53696d696c617220696465612065786973747300000000000000000000000000600082015250565b6000610849601383610695565b915061085482610813565b602082019050919050565b600060208201905081810360008301526108788161083c565b9050919050565b60008190508160005260206000209050919050565b60006020601f8301049050919050565b600082821b905092915050565b6000600883026108e17fffffffffffffffffffffffffffffffffffffffffffffffffffffffffffffffff826108a4565b6108eb86836108a4565b95508019841693508086168417925050509392505050565b6000819050919050565b600061092861092361091e84610709565b610903565b610709565b9050919050565b6000819050919050565b6109428361090d565b61095661094e8261092f565b8484546108b1565b825550505050565b600090565b61096b61095e565b610976818484610939565b505050565b5b8181101561099a5761098f600082610963565b60018101905061097c565b5050565b601f8211156109df576109b08161087f565b6109b984610894565b810160208510156109c8578190505b6109dc6109d485610894565b83018261097b565b50505b505050565b600082821c905092915050565b6000610a02600019846008026109e4565b1980831691505092915050565b6000610a1b83836109f1565b9150826002028217905092915050565b610a348261068a565b67ffffffffffffffff811115610a4d57610a4c61043c565b5b610a5782546107e2565b610a6282828561099e565b600060209050601f831160018114610a955760008415610a83578287015190505b610a8d8582610a0f565b865550610af5565b601f198416610aa38661087f565b60005b82811015610acb57848901518255600182019150602085019450602081019050610aa6565b86831015610ae85784890151610ae4601f8916826109f1565b8355505b6001600288020188555050505b505050505050565b60006040820190508181036000830152610b1781856106d0565b9050610b266020830184610713565b939250505056fea26469706673582212200773659ced07c3d7584dddcb8fad4dd2a0b38ad3b3f0e14e8db99796f22e256364736f6c634300081b0033",
  "linkReferences": {},
  "deployedLinkReferences": {}
}