{
  "_format": "hh-sol-artifact-1",
  "contractName": "IHive",
  "sourceName": "contracts/IHive.sol",
  "abi": [
    {
      "anonymous": false,
      "inputs": [
        {
          "indexed": false,
          "internalType": "string",
          "name": "idea",
          "type": "string"
        },
        {
          "indexed": true,
          "internalType": "address",
          "name": "sender",
          "type": "address"
        }
      ],
      "name": "IdeaAdded",
      "type": "event"
    },
    {
      "inputs": [
        {
          "internalType": "string",
          "name": "_idea",
          "type": "string"
        }
      ],
      "name": "addIdea",
      "outputs": [],
      "stateMutability": "payable",
      "type": "function"
    },
    {
      "inputs": [
        {
          "internalType": "string",
          "name": "_idea",
          "type": "string"
        }
      ],
      "name": "ideaExists",
      "outputs": [
        {
          "internalType": "bool",
          "name": "",
          "type": "bool"
        }
      ],
      "stateMutability": "view",
      "type": "function"
    },
    {
      "inputs": [
        {
          "internalType": "string",
          "name": "",
          "type": "string"
        }
      ],
      "name": "ideas",
      "outputs": [
        {
          "internalType": "bool",
          "name": "",
          "type": "bool"
        }
      ],
      "stateMutability": "view",
      "type": "function"
    }
  ],
  "bytecode": "0x6080604052348015600f57600080fd5b5061064b8061001f6000396000f3fe6080604052600436106100345760003560e01c80630dae6c741461003957806351c666a614610055578063c6ba010714610092575b600080fd5b610053600480360381019061004e91906103ca565b6100cf565b005b34801561006157600080fd5b5061007c600480360381019061007791906103ca565b610206565b604051610089919061042e565b60405180910390f35b34801561009e57600080fd5b506100b960048036038101906100b491906103ca565b61023a565b6040516100c6919061042e565b60405180910390f35b60003411610112576040517f08c379a0000000000000000000000000000000000000000000000000000000008152600401610109906104a6565b60405180910390fd5b6000816040516101229190610537565b908152602001604051809103902060009054906101000a900460ff161561017e576040517f08c379a00000000000000000000000000000000000000000000000000000000081526004016101759061059a565b60405180910390fd5b60016000826040516101909190610537565b908152602001604051809103902060006101000a81548160ff0219169083151502179055503373ffffffffffffffffffffffffffffffffffffffff167f8c9b01e80652a3701abe36ade10880fb518f3bd6bea5e548ea9c348f1cd31d01826040516101fb91906105f3565b60405180910390a250565b600080826040516102179190610537565b908152602001604051809103902060009054906101000a900460ff169050919050565b6000818051602081018201805184825260208301602085012081835280955050505050506000915054906101000a900460ff1681565b6000604051905090565b600080fd5b600080fd5b600080fd5b600080fd5b6000601f19601f8301169050919050565b7f4e487b7100000000000000000000000000000000000000000000000000000000600052604160045260246000fd5b6102d78261028e565b810181811067ffffffffffffffff821117156102f6576102f561029f565b5b80604052505050565b6000610309610270565b905061031582826102ce565b919050565b600067ffffffffffffffff8211156103355761033461029f565b5b61033e8261028e565b9050602081019050919050565b82818337600083830152505050565b600061036d6103688461031a565b6102ff565b90508281526020810184848401111561038957610388610289565b5b61039484828561034b565b509392505050565b600082601f8301126103b1576103b0610284565b5b81356103c184826020860161035a565b91505092915050565b6000602082840312156103e0576103df61027a565b5b600082013567ffffffffffffffff8111156103fe576103fd61027f565b5b61040a8482850161039c565b91505092915050565b60008115159050919050565b61042881610413565b82525050565b6000602082019050610443600083018461041f565b92915050565b600082825260208201905092915050565b7f596f75206e65656420746f2073656e6420736f6d652045746865720000000000600082015250565b6000610490601b83610449565b915061049b8261045a565b602082019050919050565b600060208201905081810360008301526104bf81610483565b9050919050565b600081519050919050565b600081905092915050565b60005b838110156104fa5780820151818401526020810190506104df565b60008484015250505050565b6000610511826104c6565b61051b81856104d1565b935061052b8185602086016104dc565b80840191505092915050565b60006105438284610506565b915081905092915050565b7f4964656120616c72656164792065786973747300000000000000000000000000600082015250565b6000610584601383610449565b915061058f8261054e565b602082019050919050565b600060208201905081810360008301526105b381610577565b9050919050565b60006105c5826104c6565b6105cf8185610449565b93506105df8185602086016104dc565b6105e88161028e565b840191505092915050565b6000602082019050818103600083015261060d81846105ba565b90509291505056fea2646970667358221220d2b59409a15768512655d5dc4998a11f1b3a39d32ac8857392a335d015aa5f7d64736f6c634300081b0033",
  "linkReferences": {},
  "deployedLinkReferences": {}
}